:020000040000fa
:080000000001040000000000f3
:020000040000fa
:10000800d2010000d2010000d2010000d20100009c
:10001800d2010000d2010000d2010000d20100008c
:10002800d2010000d2010000d2010000d20100007c
:10003800d2010000d2010000d2010000d20100006c
:10004800d2010000d2010000d2010000d20100005c
:10005800d2010000d2010000d2010000d20100004c
:1000680096120000d2010000d20100001c0c000012
:10007800d2010000d2010000d2010000d20100002c
:10008800d2010000d2010000d2010000d20100001c
:10009800d2010000d2010000d2010000d20100000c
:1000a800d2010000d2010000d2010000d2010000fc
:1000b800d2010000d2010000d2010000d2010000ec
:1000c800d2010000d2010000d2010000d2010000dc
:1000d800d2010000d2010000d2010000d2010000cc
:1000e800d2010000d2010000d2010000d2010000bc
:1000f800d2010000d2010000d2010000d2010000ac
:10010800d2010000d2010000d2010000d20100009b
:10011800d2010000d2010000d2010000d20100008b
:10012800d2010000d2010000d2010000d20100007b
:10013800d2010000d2010000d2010000d20100006b
:10014800d2010000d2010000d2010000d20100005b
:10015800d2010000d2010000d2010000d20100004b
:10016800d2010000d2010000d2010000d20100003b
:10017800d2010000d2010000d2010000d20100002b
:10018800d2010000d2010000d2010000d20100001b
:10019800d2010000d2010000d2010000d20100000b
:1001a800d2010000d2010000d2010000d2010000fb
:1001b800d2010000d2010000d2010000d2010000eb
:1001c800d2010000d2010000d2010000d2010000db
:1001d800d2010000d2010000d2010000d2010000cb
:1001e800d2010000d2010000d2010000d2010000bb
:0801f800d2010000d201000059
:020000040000fa
:100200004f8620000e7f24000e01880000000000b1
:10021000000020000000e000020032000001200089
:10022000200288000c000700c055210001002000ba
:100230000f000700000020000000e0000200320074
:100240000000020000000000e414020000000000b2
:100250000040da000000fe00200020000000e00066
:10026000020032001000200090018800000006000b
:10027000a1028800800078000000eb001a0037001f
:10028000e280400054a0b4009101ba00e280400036
:1002900054a0b4009102ba00e280400054a0b4001f
:1002a0000002eb00472bde00f507b200a601880034
:1002b000602ce10008003a000049eb000201e80070
:1002c000020039003420ec0002f0a0008301e900b4
:1002d000f9ff3e00040037006128e1000100320010
:1002e0000082eb00040007001101ba000200e000e8
:1002f000e3ff3a000000060004d0a300e20f49002b
:100300001c003900810278003549ba000201e8007a
:10031000020039003420ec0002f0a0008301e90063
:100320000f0032002549ba000201e800020039003e
:100330003420ec0002f0a0008301e9000800320044
:100340000400e0000600320015c9ba000201e8000e
:10035000020039003420ec0002f0a0008301e90023
:100360008180e80054a0b4000300e000e2ff3a00fe
:10037000000006009102ba00055978008301e900e7
:10038000f7ff3200c82ade00055978008301e90032
:10039000f3ff32000400e000f1ff320011d9ba008f
:0c03a000eeff37000040da000000fe0015
:020000040000fa
:1003ac000400fa006c22ef006e22ef007022ef00c6
:1003bc007c22ef00e00f2000001488008422ef0064
:1003cc000008200040148800601380000000a0008a
:1003dc000010a1000020a0000030a10060138800d4
:1003ec00601380000060a0000070a0006013880003
:1003fc007302a8006de2a8009022ef009222ef0099
:10040c009422ef00a022ef00e00f200020158800be
:10041c00a822ef00000820006015880080148000de
:10042c000000a0000010a1000020a0000030a100de
:10043c0080148800801480000060a0000070a00070
:10044c00801488009702a80091e2a800b422ef0063
:10045c00b622ef00b822ef00c422ef00e00f20001c
:10046c0040168800cc22ef0000082000801688007f
:10047c00a01580000000a0000010a1000020a0002a
:10048c000030a100a0158800a01580000060a0001d
:10049c000070a000a0158800bb02a800b5e2a8005f
:1004ac000023ef000223ef000423ef001023ef00e2
:1004bc00e00f2000a01888001823ef00000820008f
:1004cc00e0188800001880000000a0000010a100b7
:1004dc000020a0000030a100001888000018800047
:1004ec000060a0000070a000001888000703a8009e
:1004fc0001e3a8002423ef002623ef002823ef00bc
:10050c003423ef00e00f2000c01988003c23ef00db
:10051c0000082000001a8800201980000000a000ac
:10052c000010a1000020a0000030a10020198800bc
:10053c00201980000060a0000070a0002019880025
:10054c002b03a80025e3a8004823ef004a23ef0063
:10055c004c23ef005823ef00e00f2000e01a880036
:10056c006023ef0000082000201b8800401a800048
:10057c000000a0000010a1000020a0000030a1008d
:10058c00401a8800401a80000060a0000070a00093
:10059c00401a88004f03a80049e3a800a021ef00ef
:1005ac00000d80000040a1000050a000000d88004c
:1005bc00a1e1a8009421ef00a00c80000080a10014
:1005cc000090a000a00c88009421a800a00c800032
:1005dc000040a0000050a000a00c880095e1a800ed
:1005ec003022ef003222ef008011800000a0a10029
:1005fc0000b0a10000c0a1008011880000082000fc
:10060c00b0118800f00f2000a0118800901180001c
:10061c00f001b30090118800801180000000a1004f
:10062c000010a0000020a000801188003a22ef00ea
:10063c003c22ef00d011800000a0a10000b0a1006e
:10064c0000c0a100d0118800000820000012880012
:10065c00f00f2000f0118800e0118000f001b300d1
:10066c00e0118800d01180000000a1000010a00053
:10067c000020a000d01188004e22ef005022ef0085
:10068c007012800000a0a10000b0a10000c0a10069
:10069c007012880000082000a0128800f00f2000c3
:1006ac009012880080128000f001b3008012880044
:1006bc00701280000000a1000010a0000020a0001b
:1006cc00701288005822ef005a22ef00c0128000ee
:1006dc0000a0a10000b0a10000c0a100c0128800c1
:1006ec0000082000f0128800f00f2000e0128800b3
:1006fc00d0128000f001b300d0128800c01280002c
:10070c000000a1000010a0000020a000c012880072
:10071c006222ef006422ef001013800000a0a10001
:10072c0000b0a10000c0a100101388000008200038
:10073c0040138800f00f2000301388002013800035
:10074c00f001b30020138800101380000000a100fa
:10075c000010a0000020a00010138800910280005f
:10076c00010f7800ff3ffc00100280000050a00039
:10077c000060a0000070a000100288001e0078002d
:10078c00900288000000880000c1bf008080fb0040
:10079c00f00b200000816000600420007105200037
:1007ac000310200080497800814978008249780044
:1007bc009102800011079800ff3ffc00100280009e
:1007cc000050a1000060a1000070a1001002880080
:1007dc001e0090009002880000008800613f80009d
:1007ec00f00f2c008080600000d020000100700011
:1007fc00603f8800413f800000fc2f0000806000bb
:10080c00e000b300403f8800713f800000fc2f00e7
:10081c00008060000040a000703f8800713f8000a5
:10082c00f00f2c008080600000102100010070008f
:10083c00703f8800513f800000fc2f00008060005a
:10084c002001b300503f8800c266a900c246a9002f
:10085c00c306a900c2e6a900c2c6a9005e46a9004b
:10086c005e66a9005e86a9005ea6a9008786a9001f
:10087c0087e6a9005fc6a9005fe6a9009b06a90050
:10088c009b26a9009b46a9009b66a9009a06a90075
:10089c009a26a9009a46a9009b86a9009ba6a900a6
:1008ac00c226a900d626a900d606a9008666a900ec
:1008bc008686a9005e06a900af06a900af26a9008e
:1008cc007286a9007266a9007246a90072c6a900b8
:1008dc0072e6a9005f26a9005f46a9007306a9006d
:1008ec007326a9007346a9007366a9005e26a900a9
:1008fc00c3a6a900c386a90073a6a9007386a90084
:10090c0073c6a90073e6a9009bc6a9009be6a900c3
:10091c00c286a900c2a6a9000080fa000000060049
:10092c000000fa0030408000104078000080fb008e
:10093c00f012880020408000104078000080fb00fe
:10094c006400600000f0a7000000ea000000ea006c
:10095c004f00de00004078000080fb00610060006a
:10096c004300dd003236800071ff2f0081006100f2
:10097c000100700030368800204080001040780064
:10098c000080fb006200600000f0a7000000ea009d
:10099c000000ea004f00de00004078000080fb0001
:1009ac00610060004200dd0032368000b1ff2f0094
:1009bc00810061000100700030368800204080000a
:1009cc001040780061406000614060006140600050
:1009dc000080fb00610060004800dd0032368000c2
:1009ec00f1ef2f00810061000100700030368800ab
:1009fc00204080000000e800104078000080fb00e0
:100a0c006400600000f0a7000000ea000000ea00ab
:100a1c004f00de00004078000080fb0061006000a9
:100a2c004700dd0032368000f1f72f0081006100b5
:100a3c000100700030368800204080000000e80083
:100a4c00104078000080fb006200600000f0a700fe
:100a5c000000ea000000ea004f00de0000407800d1
:100a6c000080fb00610060004600dd003236800033
:100a7c00f1fb2f008100610001007000303688000e
:100a8c00204080000000e8001040780061406000c9
:100a9c0061406000614060000080fb00610060000c
:100aac004200dd0012338000b1ff2f008100610095
:100abc000100700010338800204080000080e800a6
:100acc00104078000080fb006400600000f0a7007c
:100adc000000ea000000ea004f00de000040780051
:100aec000080fb00610060004300dd0012338000d9
:100afc0071ff2f008100610001007000103388002d
:100b0c00204080000080e800104078000080fb004e
:100b1c006200600000f0a7000000ea000000ea009c
:100b2c004f00de00004078000080fb006100600098
:100b3c004400dd0012338000f1fe2f0081006100c3
:100b4c000100700010338800204080000080e80015
:100b5c0010407800614060006140600061406000be
:100b6c000080fb00610060004500dd001233800056
:100b7c00f1fd2f008100610001007000103388002e
:100b8c002040800063004000104078000080fb0093
:100b9c006400600000f0a7000000ea000000ea001a
:100bac004f00de00004078000080fb006100600018
:100bbc004c00dd0052348000f1ff2e0081006100fa
:100bcc000100700050348800204080006300400019
:100bdc00104078000080fb006200600000f0a7006d
:100bec000000ea000000ea004f00de000040780040
:100bfc000080fb004f00dd0052348000f1ff270025
:100c0c008100610001007000503488002040800099
:100c1c00630040001040780061406000614060005b
:100c2c00614060000080fb00610060004e00dd0050
:100c3c0012338000f1ff2b00810061000100700075
:100c4c001033880020408000640040001040780081
:100c5c000080fb006400600000f0a7000000ea00c8
:100c6c000000ea004f00de00004078000080fb002e
:100c7c004f00dd0012338000f1ff2700810061007e
:100c8c000100700010338800204080006400400098
:100c9c00104078000080fb006200600000f0a700ac
:100cac000000ea000000ea004f00de00004078007f
:100cbc000080fb00610060004800dd00f234800021
:100ccc00f1ef2f008100610001007000f03488000a
:100cdc0020408000640040001040780061406000bb
:100cec0061406000614060000080fb0061006000ba
:100cfc004900dd00f2348000f1df2f00810061003b
:100d0c0001007000f0348800204080006500400035
:100d1c00104078000080fb006400600000f0a70029
:100d2c000000ea000000ea004f00de0000407800fe
:100d3c000080fb00610060004a00dd00f23480009e
:100d4c00f1bf2f008100610001007000f0348800b9
:100d5c002040800065004000104078000080fb00bf
:100d6c006200600000f0a7000000ea000000ea004a
:100d7c004f00de00004078000080fb006100600046
:100d8c004b00dd00f2348000f17f2f008100610008
:100d9c0001007000f03488002040800065004000a5
:100dac00104078006140600061406000614060006c
:100dbc000080fb0061006000f2348000e1ff2f0036
:100dcc008100610001007000f03488002040800038
:100ddc006600400010407800614060006140600097
:100dec00614060000080fb0061006000000040007a
:100dfc00f2348000d1ff2f008100610001007000ef
:100e0c00f0348800204080006700400010407800db
:100e1c000080fb006400600000f0a7000000ea0006
:100e2c000000ea004f00de00004078000080fb006c
:100e3c00610060004200dd00f2348000b1ff2f0041
:100e4c008100610001007000f034880020408000b7
:100e5c0067004000104078000080fb0062006000da
:100e6c0000f0a7000000ea000000ea004f00de00de
:100e7c00004078000080fb00610060004c00dd0049
:100e8c00f2348000f1ff2e0081006100010070003f
:100e9c00f03488002040800067004000104078004b
:100eac006140600061406000614060000080fb00b8
:100ebc00610060004d00dd00f2348000f1ff2d0078
:100ecc008100610001007000f03488002040800037
:100edc0068004000104078000080fb006400600057
:100eec0000f0a7000000ea000000ea004f00de005e
:100efc00004078000080fb006100600000004000b2
:100f0c0032368000d1ff2f0081006100010070009b
:100f1c003036880020408000680040001040780087
:100f2c000080fb006200600000f0a7000000ea00f7
:100f3c000000ea004f00de00004078000080fb005b
:100f4c006100600000004000d2368000d1ff2f000d
:100f5c008100610001007000d036880020408000c4
:100f6c006800400010407800614060006140600003
:100f7c00614060000080fb0061006000d2368000a0
:100f8c00e1ff2f008100610001007000d036880065
:100f9c0040408000104078000080fb00f10f2000e2
:100fac000080500060158800404080000000e80080
:100fbc00104078000080fb00f10f200000805000f2
:100fcc00001a8800404080000080e8001040780043
:100fdc000080fb00f10f200000805000801688007c
:100fec000080fa00000006000000fa00604080005b
:100ffc00104078000080fb004013880050408000b7
:10100c00104078000080fb006400600000f0a70036
:10101c000000ea000000ea004f00de00004078000b
:10102c000080fb00610060004300dd005234800052
:10103c0071ff2f00810061000100700050348800a6
:10104c0050408000104078000080fb00620060007f
:10105c0000f0a7000000ea000000ea004f00de00ec
:10106c00004078000080fb00610060004400dd005f
:10107c0052348000f1fe2f008100610001007000ed
:10108c00503488005040800010407800614060006f
:10109c0061406000614060000080fb006100600006
:1010ac0012338000e1ff2f0081006100010070000d
:1010bc0010338800504080000000e8001040780099
:1010cc000080fb006400600000f0a7000000ea0054
:1010dc000000ea004f00de00004078000080fb00ba
:1010ec00610060004800dd0092358000f1ef2f00b8
:1010fc008100610001007000903588005040800034
:10110c000000e800104078000080fb0062006000e6
:10111c0000f0a7000000ea000000ea004f00de002b
:10112c00004078000080fb00610060004900dd0099
:10113c0092358000f1df2f0081006100010070000a
:10114c0090358800504080000000e8001040780086
:10115c006140600061406000614060000080fb0005
:10116c00610060004400dd00b2338000f1fe2f000e
:10117c008100610001007000b03388005040800095
:10118c000080e800104078000080fb0064006000e4
:10119c0000f0a7000000ea000000ea004f00de00ab
:1011ac00004078000080fb00610060004300dd001f
:1011bc00b233800071ff2f008100610001007000cc
:1011cc00b0338800504080000080e8001040780068
:1011dc000080fb006200600000f0a7000000ea0045
:1011ec000000ea004f00de00004078000080fb00a9
:1011fc00610060004200dd00b2338000b1ff2f00bf
:10120c008100610001007000b03388005040800004
:10121c000080e80010407800614060006140600090
:10122c00614060000080fb00610060004600dd0052
:10123c00b2338000f1fb2f008100610001007000cf
:10124c00b0338800504080006300400010407800ac
:10125c000080fb006400600000f0a7000000ea00c2
:10126c000000ea004f00de00004078000080fb0028
:10127c00610060004700dd00b2338000f1f72f0001
:10128c008100610001007000b03388005040800084
:10129c0063004000104078000080fb00620060009a
:1012ac0000f0a7000000ea000000ea004f00de009a
:1012bc00004078000080fb00610060004900dd0008
:1012cc0012338000f1df2f008100610001007000fb
:1012dc0010338800504080006300400010407800bc
:1012ec006140600061406000614060000080fb0074
:1012fc00610060004a00dd0012338000f1bf2f0056
:10130c0081006100010070001033880050408000a3
:10131c0064004000104078000080fb006400600016
:10132c0000f0a7000000ea000000ea004f00de0019
:10133c00004078000080fb00610060004800dd0088
:10134c00b2338000f1ef2f008100610001007000ca
:10135c00b03388005040800064004000104078009a
:10136c000080fb006200600000f0a7000000ea00b3
:10137c000000ea004f00de00004078000080fb0017
:10138c00610060004900dd00b2338000f1df2f0006
:10139c008100610001007000b03388005040800073
:1013ac0064004000104078006140600061406000c3
:1013bc00614060000080fb00610060004a00dd00bd
:1013cc00b2338000f1bf2f0081006100010070007a
:1013dc00b033880050408000650040001040780019
:1013ec000080fb006400600000f0a7000000ea0031
:1013fc000000ea004f00de00004078000080fb0097
:10140c00610060004b00dd00b2338000f17f2f00e3
:10141c008100610001007000b033880050408000f2
:10142c0065004000104078000080fb006200600006
:10143c0000f0a7000000ea000000ea004f00de0008
:10144c00004078000080fb0061006000000040005c
:10145c0012338000d1ff2f00810061000100700069
:10146c001033880050408000650040001040780028
:10147c006140600061406000614060000080fb00e2
:10148c00610060004d00dd0032368000f1ff2d0060
:10149c0081006100010070003036880050408000ef
:1014ac0066004000104078000080fb006400600083
:1014bc0000f0a7000000ea000000ea004f00de0088
:1014cc00004078000080fb00610060004c00dd00f3
:1014dc0032368000f1ff2e008100610001007000a7
:1014ec003036880050408000660040001040780084
:1014fc000080fb006200600000f0a7000000ea0022
:10150c000000ea004f00de00004078000080fb0085
:10151c00610060004d00dd00b2338000f1ff2d0052
:10152c008100610001007000b033880050408000e1
:10153c00660040001040780061406000614060002f
:10154c00614060000080fb00610060004c00dd0029
:10155c00b2338000f1ff2e008100610001007000a9
:10156c00b033880050408000670040001040780085
:10157c000080fb006400600000f0a7000000ea009f
:10158c000000ea004f00de00004078000080fb0005
:10159c00610060004e00dd00b2338000f1ff2b00d3
:1015ac008100610001007000b03388005040800061
:1015bc0067004000104078000080fb006200600073
:1015cc0000f0a7000000ea000000ea004f00de0077
:1015dc00004078000080fb004f00dd00b23380003b
:1015ec00f1ff27008100610001007000b03388001a
:1015fc00504080006700400010407800614060005f
:10160c0061406000614060000080fb006100600090
:10161c004e00dd00f2348000f1ff2b0081006100f0
:10162c0001007000f03488005040800068004000d9
:10163c00104078000080fb006400600000f0a70000
:10164c000000ea000000ea004f00de0000407800d5
:10165c000080fb004f00dd00f2348000f1ff27001a
:10166c008100610001007000f0348800504080005f
:10167c0068004000104078000080fb0062006000b1
:10168c0000f0a7000000ea000000ea004f00de00b6
:10169c00004078000080fb00610060004400dd0029
:1016ac0032368000f1fe2f008100610001007000d5
:1016bc0030368800504080006800400010407800b0
:1016cc006140600061406000614060000080fb0090
:1016dc00610060004500dd0032368000f1fd2f0016
:1016ec00810061000100700030368800704080007d
:1016fc00104078000080fb00f10f200000805000ab
:10170c00201b8800704080000000e800104078002a
:10171c000080fb00f10f200000805000e0188800d2
:10172c00704080000080e800104078000080fb00d2
:10173c00f10f200000805000401488000080fa0057
:10174c00000006000000fa001040800010407800f5
:10175c00e14f500006003a00810c8000f007200099
:10176c0080806000f0032000808f50000f003e004e
:10177c0000408000104078000080fb00a012880020
:10178c00004080000000e800104078000080fb0062
:10179c00b0118800004080000080e8001040780004
:1017ac000080fb0000128800030037005422ef0079
:1017bc003622ef004022ef000080fa000000060005
:1017cc000000fa00dfff070007fe070054fc0700cb
:1017dc000080fa00000006000000fa00e5e6a9000f
:1017ec00bca6a900bcc6a900bce6a9009426a90009
:1017fc009446a900e3e6a800e1e6a800baa6a80072
:10180c00b8a6a800bac6a800b8c6a800bae6a80030
:10181c00b8e6a8009026a8009046a8005be6a800b1
:10182c009a60a8000080fa0000000600809fbe00ad
:10183c000000fa00213780000000280000806000c2
:10184c000000e0005c00320038c8bf000080fb00e4
:10185c00e30f500027003200e30f500007003c005c
:10186c00e10f500014003200e10f500019003c0051
:10187c000000e000080032004e003700e50f500079
:10188c0037003200e50f500022003500e60f500003
:10189c002800320047003700c136800000002800c5
:1018ac00008060000000e00035003a0010c0b3007a
:1018bc0038e8b7003f003700c13680000000280030
:1018cc00008060000000e0002f0032003868ef005c
:1018dc0038003700c136800000002800008060000e
:1018ec000000e0002a003a0040c0b30038e8b7001e
:1018fc0030003700c13680000000280000806000f6
:10190c000000e0002400320050c0b30038e8b700fb
:10191c0028003700c13680000000280000806000dd
:10192c000000e0001e00320020c0b30038e8b70011
:10193c0020003700c13680000000280000806000c5
:10194c000000e00018003200b040800090407800a9
:10195c008140e900014878003868ef001500370035
:10196c00c136800000002800008060000000e0000c
:10197c000f003a0030c0b30038e8b7000d00370054
:10198c00000000000b0037000000000009003700c9
:10199c0000000000070037000000000005003700c1
:1019ac0000000000030037000000000001003700b9
:1019bc0000000000e5e6a900e03280007000600045
:1019cc000000e00023013200e1358000000220001d
:1019dc00008060000000e0005c00320038c8bf00ee
:1019ec000080fb00e30f500027003200e30f500093
:1019fc0007003c00e10f500014003200e10f5000d2
:101a0c001a003c000000e000080032004e003700d5
:101a1c00e50f500034003200e50f50002200350075
:101a2c00e60f500028003200470037008135800057
:101a3c0000022000008060000000e00035003a0049
:101a4c0020c0b30038e8b7003f0037008135800074
:101a5c0000022000008060000000e0002f003a002f
:101a6c0030c0b30038e8b70037003700813580004c
:101a7c0000022000008060000000e000290032001d
:101a8c003868ef00300037008135800000022000fc
:101a9c00008060000000e0002400320010c0b300a1
:101aac0038e8b7002800370081358000000220009c
:101abc00008060000000e0001e00320060c0b30037
:101acc0038e8b70020003700813580000002200084
:101adc00008060000000e00018003a0040c0b30035
:101aec0038e8b7001800370081358000000220006c
:101afc00008060000000e00012003200b040800066
:101b0c00904078008140e800014878003868ef0088
:101b1c000d003700000000000b0037000000000033
:101b2c00090037000000000007003700000000002b
:101b3c000500370000000000030037000000000023
:101b4c000100370000000000bca6a900e1358000b0
:101b5c0000042000008060000000e0005c00320007
:101b6c0039c8bf000080fb00e30f50002700320093
:101b7c00e30f500007003c00e10f5000140032004e
:101b8c00e10f500019003c000000e000080032009a
:101b9c004e003700e50f500037003200e50f5000c3
:101bac0022003500e60f50002800320047003700b5
:101bbc008135800000042000008060000000e000ff
:101bcc0035003a0010c0b30039e8b7003f003700c9
:101bdc008135800000042000008060000000e000df
:101bec002f0032003968ef00380037008135800053
:101bfc0000042000008060000000e0002a003a0091
:101c0c0040c0b30039e8b7003000370081358000a0
:101c1c0000042000008060000000e000240032007e
:101c2c0050c0b30039e8b700280037008135800078
:101c3c0000042000008060000000e0001e00320064
:101c4c0020c0b30039e8b700200037008135800090
:101c5c0000042000008060000000e000180032004a
:101c6c00a0408000904078008140e9000148780055
:101c7c003968ef0015003700813580000004200022
:101c8c00008060000000e0000f003a0030c0b3009c
:101c9c0039e8b7000d003700000000000b003700da
:101cac0000000000090037000000000007003700aa
:101cbc0000000000050037000000000003003700a2
:101ccc00000000000100370000000000bcc6a900a5
:101cdc00e135800000082000008060000000e0007a
:101cec005c00320039c8bf000080fb00e30f5000dd
:101cfc0027003200e30f500007003c00e10f5000ba
:101d0c0014003200e10f50001a003c000000e0000b
:101d1c00080032004e003700e50f5000340032004e
:101d2c00e50f500022003500e60f5000280032006d
:101d3c0047003700813580000008200000806000db
:101d4c000000e00035003a0020c0b30039e8b700cd
:101d5c003f003700813580000008200000806000c3
:101d6c000000e0002f003a0030c0b30039e8b700a3
:101d7c0037003700813580000008200000806000ab
:101d8c000000e000290032003968ef003000370015
:101d9c008135800000082000008060000000e00019
:101dac002400320010c0b30039e8b7002800370017
:101dbc008135800000082000008060000000e000f9
:101dcc001e00320060c0b30039e8b70020003700b5
:101ddc008135800000082000008060000000e000d9
:101dec0018003a0040c0b30039e8b70018003700bb
:101dfc008135800000082000008060000000e000b9
:101e0c0012003200a0408000904078008140e80031
:101e1c00014878003968ef000d0037000000000021
:101e2c000b00370000000000090037000000000024
:101e3c00070037000000000005003700000000001c
:101e4c000300370000000000010037000000000014
:101e5c00bce6a900e0328000640060000000e000f5
:101e6c0020003200a0348000620060000000e0001e
:101e7c000c00320036c8bf000004e00008003a0035
:101e8c0090408000904078008140e8000148780044
:101e9c0010c0b30036e8b700800c80009041880079
:101eac009426a900a0348000640060000000e000cb
:101ebc000c00320037c8bf000004e00008003a00f4
:101ecc0080408000904078008140e8000148780014
:101edc0010c0b30037e8b700800c8000a041880028
:101eec009446a9008a60a9000080fa004f00be0049
:101efc00004006000200fa00810c8000010f7800ff
:101f0c0036c8bf000004e00005003200904180009c
:101f1c001e001000fa0f5000010036003668ef006a
:101f2c0037c8bf000004e00005003200a04180006b
:101f3c001e001000fa0f5000010036003768ef0049
:101f4c000080fa00000006000200fa00000f780082
:101f5c001e007800e10f50000e003200e10f50001f
:101f6c0003003900e20f50000f0032002a00370046
:101f7c002ec8bf008080fb00c08320000080400082
:101f8c001d0207002ec8bf000040e8002ee8b70075
:101f9c002100370010c0b3002fe8b70000832000e9
:101fac00210207001c0037002fc8bf000004e0000e
:101fbc000e00320030c8bf002ee8b7002f68ef00cb
:101fcc00018320009140780050c2b30080cf5000b4
:101fdc0010003a00f0408000904078008140e8000a
:101fec00014878000060fe000b0037002ec8bf00cf
:101ffc000080fb000283200012417800c183200086
:10200c00827078002ec8bf000040e8002ee8b700b0
:10201c00010037000000000010c0b3000080fa007f
:10202c00000006000000fa000041800021c1b3004e
:10203c0001487800a0408000104078008000fb0030
:10204c002ac8bf000000fb00008050000000e00028
:10205c0005003d00c0408000c140800091407800e8
:10206c00f9c0500001487800a04080001040780072
:10207c008000fb002ac8bf000000fb00008050005d
:10208c000000e00005003400c0408000c14080002a
:10209c0091407800f9c0400001487800b0408000c1
:1020ac00104078008000fb002bc8bf000000fb0034
:1020bc00008050000000e00005003d00d040800092
:1020cc00d140800091407800f9c050000148780060
:1020dc00b0408000104078008000fb002bc8bf008f
:1020ec000000fb00008050000000e0000500340000
:1020fc00d0408000d140800091407800f9c0400071
:10210c0001487800a0408000104078002ae8b70011
:10211c00b0408000104078002be8b7008040800071
:10212c00904078002cc8bf0080cf500003003200d4
:10213c00c04080008040eb00014878009040800057
:10214c00904078002dc8bf0080cf500003003200b3
:10215c00d04080008040eb00014878008040800037
:10216c00104078002ce8b7009040800010407800b8
:10217c002de8b700c040800090407800c0c9b30083
:10218c0080cf500003003d00c0408000c1c9b300a7
:10219c0001487800c04080009040780040c6b300f1
:1021ac0080cf500003003400c040800041c6b30013
:1021bc0001487800d040800090407800c0c9b3003e
:1021cc0080cf500003003d00d0408000c1c9b30057
:1021dc0001487800d04080009040780040c6b300a1
:1021ec0080cf500003003400d040800041c6b300c3
:1021fc0001487800e0408000104078000004e000c6
:10220c00aa00320021408000c040800010417800bc
:10221c00d0c9b300804f510002003d0040c0b30054
:10222c00010037000040eb0080487800204080001f
:10223c008000e800c040800010417800b0cbb300b3
:10224c00804f510002003d0040c0b3000100370038
:10225c000040eb0080487800204080008080e8003f
:10226c00c040800010417800f0ccb300804f51008a
:10227c0002003d0040c0b300010037000040eb00fd
:10228c008048780020408000e3004000c04080007f
:10229c0010407800f84f400002003d0040c0b300f1
:1022ac00010037000040eb0080487800204080009f
:1022bc006400400021c0b300014878002040800039
:1022cc00e5004000c04080001041780010c0b30011
:1022dc00f84f510001003c000040eb0080487800b2
:1022ec0020408000e6004000c04080009041780013
:1022fc0010c0b30012c3b30082cf510001003c00e8
:10230c000040eb008048780020408000e70040004f
:10231c00c04080009041780010c0b300a2c4b3004c
:10232c0082cf510001003c000040eb008048780057
:10233c0020408000e8004000c040800090417800c0
:10234c0010c0b30032c6b30082cf510001003c0074
:10235c000040eb008048780051408000d040800065
:10236c0010417800d0c9b300804f510002003d00ed
:10237c0040c0b300010037000040eb0080487800fb
:10238c00504080008000e800d04080001041780070
:10239c00b0cbb300804f510002003d0040c0b300f1
:1023ac00010037000040eb0080487800504080006e
:1023bc008080e800d040800010417800f0ccb30061
:1023cc00804f510002003d0040c0b30001003700b7
:1023dc000040eb008048780050408000e300400053
:1023ec00d040800010407800f84f400002003d00c3
:1023fc0040c0b300010037000040eb00804878007b
:10240c00504080006400400021c0b30001487800b7
:10241c0050408000e5004000d04080001041780022
:10242c0010c0b300f84f510001003c000040eb001d
:10243c008048780050408000e6004000d04080008a
:10244c009041780010c0b30012c3b30082cf51008a
:10245c0001003c000040eb008048780050408000b8
:10246c00e7004000d04080009041780010c0b300dd
:10247c00a2c4b30082cf510001003c000040eb002d
:10248c008048780050408000e8004000d040800038
:10249c009041780010c0b30032c6b30082cf510017
:1024ac0001003c000040eb00804878000080fa00fe
:1024bc00000006000000fa0000002800d02488006c
:1024cc009c24ef009e24ef0070032000fe00070008
:1024dc000000eb00f00007002228ef000000eb00ea
:1024ec00c50007000000eb00cf000700800580004e
:1024fc000000a0000010a1000020a00080058800b2
:10250c008a00a9009a00a8000080fa0000000600ca
:10251c000000fa00e7ff07000080fa000000060048
:10252c003600f800809fbe00829fbe00849fbe00d4
:10253c00869fbe000200fa0010418000e20f50009e
:10254c008a003200e20f500003003900e30f500004
:10255c00790032009a003700d1248000004020001e
:10256c00008060000000e00005003a00f1248000cb
:10257c0000022000008060000000e0000a00320031
:10258c00d124800000082000008060000000e000e2
:10259c0024003200f1248000002020000080600024
:1025ac000000e0001f003200f02480006400600096
:1025bc000000e0000b003a001000200062fe070053
:1025cc003ae8b70010002000104188003ac8bf005c
:1025dc000004e0003b003200a0248000004f780093
:1025ec00390037000000eb0057fe07003041800037
:1025fc000000e000050032003041800010407800ff
:10260c000080fb00b02488009b84a80020002000e0
:10261c0010418800a0248000004f78009ec4a900bf
:10262c0029003700d1248000004020000080600089
:10263c000000e00024003200f124800000022000a1
:10264c00008060000000e0001f003a00f0248000d1
:10265c00640060000000e00004003a002868ef000d
:10266c0030002000104188001300370028c8bf003c
:10267c000004e0000d0032000000eb0032fe070009
:10268c00304180000000e000050032003041800045
:10269c00104078000080fb00b02488009b84a800c8
:1026ac002000200010418800030037002868ef004c
:1026bc003000200010418800a0248000004f7800da
:1026cc00010037000000000010418000e10f5000b5
:1026dc003c003a00f12480000002200000806000e1
:1026ec000000e00039003200f124800000042000da
:1026fc00008060000000e0000b003a0020418000e8
:10270c000000e0000400320020418000a124800081
:10271c008140780001487800200020000afe070064
:10272c003ae8b7002c003700a0248000004f780056
:10273c009ec4a900280037003000200002fe0700cc
:10274c003ae8b70010c0b30028e8b7003ac8bf0099
:10275c000004e00002003200a0248000004f78004a
:10276c0010002000104188001b003700f12480006d
:10277c0000002800008060000000e0000b003a0020
:10278c000000eb00f0fd0700304180000000e0008d
:10279c001000320030418000104078000080fb00b7
:1027ac00b02488009b84a8000b0037002228ef007f
:1027bc00a0248000004f78009ec4a90006003700ba
:1027cc00ffff37000000000003003700000000008e
:1027dc0001003700000000008a00a9000080fa0008
:1027ec004f03be004f02be004f01be004f00be00a3
:1027fc003600f900004006000200fa00000f7800d5
:10280c009e007800314188000080fa00000006002c
:10281c000200fa00000f78001e007800f6ff070097
:10282c000080fa00000006000200fa00000f780099
:10283c009e007800214188000080fa00000006000c
:10284c000200fa00000f78001e007800f6ff070067
:10285c000080fa00000006000000fa003041800001
:10286c000080fa00000006000000fa00faff0700e2
:10287c000080fa00000006000000fa0020418000f1
:10288c000080fa00000006000000fa00faff0700c2
:10289c000080fa00000006000200fa00000f780029
:1028ac009e007800112588000080fa0000000600c8
:1028bc000200fa00000f78001e007800f6ff0700f7
:1028cc000080fa00000006000200fa00000f7800f9
:1028dc00f00720009e007800808f50000200360028
:1028ec009b44a800010037009b44a9002228ef005c
:1028fc009e007800012588000080fa000000060088
:10290c000200fa00000f78001e007800eeff0700ae
:10291c000080fa00000006000000fa003041800040
:10292c000000e000060032003041800010407800ca
:10293c000080fb00b02488009b84a80001003700b5
:10294c00000000000080fa00000006000000fa0001
:10295c00204180000000e000050032002041800092
:10296c00a1248000814078000148780001003700e4
:10297c00000000000080fa00000006000400fa00cd
:10298c00810c800011079800810c8000010f7800e9
:10299c0004003700810c8000010f78000060fe00fd
:1029ac0087fb07001e0090001e001000fd0f50005a
:1029bc00f8ff36000080fa00000006000000fa0064
:1029cc007800070076f6070083fb070000408000c4
:1029dc0080c0eb0001487800004080000000e80057
:1029ec008040eb0001487800004080000080e80047
:1029fc008040eb00014878001040800011c0b3000b
:102a0c00014878003040800011c0b30001487800c4
:102a1c006040800011c0b300014878004040800045
:102a2c008040eb0001487800404080000000e80046
:102a3c008040eb0001487800404080000080e800b6
:102a4c008040eb0001487800704080008040eb0033
:102a5c0001487800704080000000e8008040eb00e6
:102a6c0001487800704080000080e8008040eb0056
:102a7c0001487800c04080008040eb00014878009d
:102a8c00d04080008040eb0001487800e04080009e
:102a9c0011c0b300014878000060fe0061fd070022
:0c2aac0047fb070013fd0700fcff37008c
:020000040000fa
:102ab8002208000008000000800000003a0800001a
:102ac8000200000082000000010000003c08000035
:102ad800280000008000000000080000220000001c
:102ae800820000003c083f000840080049084a00ee
:102af800084d080056085700085c08005d085a0091
:102b0800085b08005e085f00086008006108620052
:102b1800080000002a0800000800000080000000eb
:102b280032080000080000008000000000000000db
:020000040000fa
:102b38000000fa006226ef00f06f2c00f0328800e7
:102b48007626ef000080eb00903388008a26ef009d
:102b5800e0012900303488009e26ef000080eb0059
:102b6800d0348800b226ef00f03f2000703588008e
:102b7800c626ef00f01f230010368800da26ef0083
:102b8800f03c2f00b03688006626ef007a26ef006a
:102b98008e26ef00a226ef00b626ef00de26ef0015
:102ba8000080fa00000006000000fa000500070097
:102bb800dfff0700090007003ffe07000080fa005a
:102bc800000006000000fa0000002300100888003a
:102bd8000021a9000080fa00000006000000fa00a9
:102be800800580000000a0000010a1000020a100c6
:0c2bf800800588000080fa000000060044
:020000040000fa
:020000040002f8
:04af0000ffff00004f
:020000040000fa
:020000040002f8
:04af2000ffff00002f
:020000040000fa
:020000040002f8
:04af300061ff0000bd
:020000040000fa
:020000040002f8
:04af380083ff000093
:020000040000fa
:020000040002f8
:04af4000faff000014
:020000040000fa
:020000040002f8
:04af48007fff000087
:020000040000fa
:020000040002f8
:04af5000dfff00001f
:020000040000fa
:020000040002f8
:04af58007fff000077
:020000040000fa
:020000040002f8
:04af6000ffff0000ef
:00000001FF
